:100000000C945D000C9485000C9485000C94850084
:100010000C9485000C9485000C9485000C9485004C
:100020000C9485000C9485000C9485000C9485003C
:100030000C9485000C9485000C9485000C9485002C
:100040000C9458030C9485000C94C8030C94A203E0
:100050000C9485000C9485000C9485000C9485000C
:100060000C9485000C94850000000008000201003B
:100070000003040700000000000000000000000072
:10008000250028002B0000000000240027002A0083
:10009000040404040404040402020202020203032E
:1000A0000303030301020408102040800102040836
:1000B0001020010204081020DE0511241FBECFEF1E
:1000C000D8E0DEBFCDBF24E0AAE8B3E001C01D92B6
:1000D000A839B207E1F713E0A0E0B1E0E4E9F0E10C
:1000E00002C005900D92AA38B107D9F710E0CDE50E
:1000F000D0E004C02197FE010E944206CC35D10712
:10010000C9F70E94FA030C9448080C94000090E090
:10011000FC01EC55FF4F249180579F4FFC018491C7
:10012000882399F090E0880F991FFC01EA57FF4F50
:10013000A591B491FC01E458FF4F859194918FB73C
:10014000F894EC91E22BEC938FBF089590E0FC01C2
:10015000E859FF4F2491FC01EC55FF4F3491FC010D
:10016000E057FF4FE491EE23C9F0222339F023300A
:1001700001F1A8F4213019F1223029F1F0E0EE0F5D
:10018000FF1FE458FF4FA591B4918FB7F894EC91FD
:10019000611126C030953E233C938FBF08952730D0
:1001A000A9F02830C9F0243049F7809180008F7D74
:1001B00003C0809180008F7780938000DFCF84B56B
:1001C0008F7784BDDBCF84B58F7DFBCF8091B0006E
:1001D0008F778093B000D2CF8091B0008F7DF9CF20
:1001E0003E2BDACFAF92BF92CF92DF92EF92FF9287
:1001F0000F931F93CF93DF936C017B018B01040F4F
:10020000151FEB015E01AE18BF08C017D10759F0EA
:100210006991D601ED91FC910190F081E02DC6012C
:100220000995892B79F7C501DF91CF911F910F9126
:10023000FF90EF90DF90CF90BF90AF900895FC01BA
:10024000538D448D252F30E0842F90E0821B930B3B
:10025000541710F0CF96089501970895FC01918DE1
:10026000828D981761F0A28DAE0FBF2FB11D5D96E4
:100270008C91928D9F5F9F73928F90E008958FEF86
:100280009FEF08952FB7F8948091F3039091F403B2
:10029000A091F503B091F6032FBF8093FF039093D5
:1002A0000004A0930104B093020487EF93E00E943E
:1002B0002E0197FF26C02FB7F8948091F3039091F9
:1002C000F403A091F503B091F6032FBF4091FF0313
:1002D000509100046091010470910204841B950BFD
:1002E000A60BB70B4091FB035091FC036091FD03FB
:1002F0007091FE0384179507A607B707B0F28FEF3A
:100300009FEF0895FC01918D828D981731F0828DB9
:10031000E80FF11D858D90E008958FEF9FEF089510
:10032000FC01918D228D892F90E0805C9F4F821B74
:1003300091098F739927089587EF93E00E949001A8
:1003400021E0892B09F420E0822F089580E090E0DD
:10035000892B29F00E949C0181110C9400000895C2
:10036000FC01A48DA80FB92FB11DA35ABF4F2C912A
:10037000848D90E001968F739927848FA689B78921
:100380002C93A089B1898C91837080648C93938D18
:10039000848D981306C00288F389E02D80818F7DBB
:1003A00080830895EF92FF920F931F93CF93DF9373
:1003B000EC0181E0888F9B8D8C8D98131AC0E889A1
:1003C000F989808185FF15C09FB7F894EE89FF8970
:1003D0006083E889F98980818370806480839FBF0E
:1003E00081E090E0DF91CF911F910F91FF90EF900E
:1003F0000895F62E0B8D10E00F5F1F4F0F7311271E
:10040000E02E8C8D8E110CC00FB607FCFACFE88958
:10041000F989808185FFF5CFCE010E94B001F1CF2F
:10042000EB8DEC0FFD2FF11DE35AFF4FF0829FB7CC
:10043000F8940B8FEA89FB8980818062CFCFCF93BC
:10044000DF93EC01888D8823B9F0AA89BB89E889FC
:10045000F9898C9185FD03C0808186FD0DC00FB6A2
:1004600007FCF7CF8C9185FFF2CF808185FFEDCF20
:10047000CE010E94B001E9CFDF91CF9108955F9244
:100480006F927F928F929F92AF92BF92CF92DF92A4
:10049000EF92FF920F931F93CF93DF9385EFC82EB8
:1004A00082E0D82ED0E0C0E088248394912C25E00F
:1004B000522E3BE6632E37E1732E54010C2E02C000
:1004C000AA0CBB1C0A94E2F70AE813E02091000191
:1004D00030910101C8018A58934082179307E4F5CF
:1004E000F12CE12CF80180818052990B589EF0018B
:1004F000599EF00D1124E85FFE4FEE0DFF1D808127
:1005000090E08A219B2161E0892BC9F08DE00E9457
:10051000A60061E08CE00E94A60060E08DE00E94F1
:10052000A60061E08CE00E94A600FFEFEF1AFF0A30
:1005300085E0E816F104B1F60F5F1F4FC7CF8DE0DD
:100540000E94A60060E08CE00E94A60060E08DE0C2
:100550000E94A60060E0E6CF61E08DE00E94A60068
:1005600060E08DE00E94A600F60111916F0161E04C
:10057000812F0E94A600C3010197F1F760E0812F4F
:100580000E94A6002196C730D10509F096CFDF91D1
:10059000CF911F910F91FF90EF90DF90CF90BF9080
:1005A000AF909F908F907F906F905F900895FC0127
:1005B00001900020E9F73197AF01481B590BBC01AE
:1005C00087EF93E00C94F200CF93DF930E94D70261
:1005D000EC018CEF92E00E94D7028C0F9D1FDF91FF
:1005E000CF910895FC0180819181009711F00C94C6
:1005F000E40608950F931F93CF93DF93EC01888156
:100600009981009759F02A813B812617370730F0EE
:1006100081E0DF91CF911F910F9108958B016F5F62
:100620007F4F0E946D07009759F0998388831B8341
:100630000A832C813D81232B59F7FC011082E8CFDE
:1006400080E0E7CFEF92FF920F931F93CF93DF935A
:10065000EC017B01FB0101900020E9F731978F014C
:10066000061B170BB8010E94FA02288139818111FB
:1006700013C02115310519F0C9010E94E406198241
:1006800018821D821C821B821A82DF91CF911F91DA
:100690000F91FF90EF9008951D830C83B701C9015E
:1006A000DF91CF911F910F91FF90EF900C94330841
:1006B0001F920F920FB60F9211242F933F938F9397
:1006C0009F93AF93BF938091F3039091F403A09114
:1006D000F503B091F6033091F20323E0230F2D3799
:1006E00058F50196A11DB11D2093F2038093F303E9
:1006F0009093F403A093F503B093F6038091EE0377
:100700009091EF03A091F003B091F1030196A11D28
:10071000B11D8093EE039093EF03A093F003B09389
:10072000F103BF91AF919F918F913F912F910F90C6
:100730000FBE0F901F90189526E8230F0296A11D5B
:10074000B11DD2CF1F920F920FB60F9211242F938B
:100750003F934F935F936F937F938F939F93AF9349
:10076000BF93EF93FF9387EF93E00E94B001FF9157
:10077000EF91BF91AF919F918F917F916F915F9119
:100780004F913F912F910F900FBE0F901F90189592
:100790001F920F920FB60F9211242F938F939F9356
:1007A000EF93FF93E0910704F09108048081E091BA
:1007B0000D04F0910E0482FD1BC090818091100405
:1007C0008F5F8F7320911104821741F0E091100424
:1007D000F0E0E950FC4F958F80931004FF91EF916A
:1007E0009F918F912F910F900FBE0F901F90189592
:1007F0008081F4CFCF93DF93CDB7DEB72C970FB6C0
:10080000F894DEBF0FBECDBF789484B5826084BDFE
:1008100084B5816084BD85B5826085BD85B5816004
:1008200085BD80916E00816080936E001092810082
:10083000809181008260809381008091810081603D
:1008400080938100809180008160809380008091FE
:10085000B10084608093B1008091B000816080938A
:10086000B00080917A00846080937A0080917A0051
:10087000826080937A0080917A00816080937A0010
:1008800080917A00806880937A001092C100E09194
:100890000704F091080482E08083E0910304F09162
:1008A00004041082E0910504F091060480E1808345
:1008B00010920F04E0910B04F0910C0486E0808309
:1008C000E0910904F0910A04808180618083E091C5
:1008D0000904F0910A04808188608083E091090412
:1008E000F0910A04808180688083E0910904F0918E
:1008F0000A0480818F7D80838DE00E9487008CE0D8
:100900000E94870005EF12E0F80181918F010E949B
:100910008700F2E00C3F1F07B9F76FEF72E08AE83B
:1009200093E00E9433088FE090E090930101809360
:1009300000018FE093E00E94E40284E393E00E94D0
:10094000E4028FB7F894C090F303D090F403E090E2
:10095000F503F090F6038FBF2FB7F8948091F3035F
:100960009091F403A091F503B091F6032FBF8C1979
:100970009D09AE09BF09883B9B40A105B10518F44C
:100980000E943F02E9CF6FE473E08AE893E00E949F
:10099000330882E190E0909301018093000181E6A9
:1009A00093E00E94E40220E0C22E20E0D22E87EFE6
:1009B00093E00E949001181619060CF0F1C01886F9
:1009C0001F821A8619861C861B866EEF72E0CE0186
:1009D00007960E9422030E94420197FD1EC08A30A2
:1009E0009105D9F089831A820B851C850F5F1F4FF3
:1009F000B801CE0107960E94FA02882361F32F8185
:100A000038858B859C85BE016F5F7F4F820F931F5A
:100A10000E9433081C870B87DECF1A8219821C8242
:100A20001B821E821D826FE773E0CE0101960E9439
:100A300022034D815E818B859C858417950770F01C
:100A40008F819885009751F069817A8161157105D0
:100A500029F00E943A0811E0892B09F010E0CE013C
:100A600001960E94F202112309F496C0AB84BC8463
:100A700085E0E82EF12C85E0A816B10420F475017C
:100A800095E0A92EB12C1A8219821C821B821E822B
:100A90001D826EEF72E0CE0101960E9422030B854B
:100AA0001C85E016F106A8F5A016B10608F485012C
:100AB000EF81F885E00FF11F908010828F8198857B
:100AC000E80EF91EE114F10409F44FC0F70101909A
:100AD0000020E9F731975F01AE18BF08B501CE01DC
:100AE00001960E94FA0229813A81811137C02115AD
:100AF000310519F0C9010E94E4061A8219821E828A
:100B00001D821C821B828F819885080F191FF80196
:100B100090826D817E8183E690E06336710508F4F2
:100B2000CB019093010180930001A981BA810AE869
:100B300013E030E020E028173907F4F426173707D0
:100B4000C8F41097B9F0AD01420F531FFA0140816C
:100B5000F80141938F012F5F3F4FEDCFBE82AD82F1
:100B6000B701C9010E943308CECF89819A810097CD
:100B700011F6C3CF40E0ECCF86579C4FFC011082AA
:100B800085E893E00E94D7028AE893E00E94E4029D
:100B9000CE0101960E94F202CE0107960E94F20257
:100BA0000E943F02C114D10409F401CF0E949C01AC
:100BB000882309F4FCCE0E940000F9CEE7EFF3E0B1
:100BC0001382128288EE93E0A0E0B0E084839583E4
:100BD000A683B78387EE92E09183808385EC90E0D3
:100BE0009587848784EC90E09787868780EC90E0F7
:100BF000918B808B81EC90E0938B828B82EC90E0E8
:100C0000958B848B86EC90E0978B868B118E128E61
:100C1000138E148E08952F923F924F925F926F928F
:100C20007F928F929F92AF92BF92CF92DF92EF927C
:100C3000FF920F931F93CF93DF93CDB7DEB7CA1BFD
:100C4000DB0B0FB6F894DEBF0FBECDBF09942A8828
:100C5000398848885F846E847D848C849B84AA84D0
:100C6000B984C884DF80EE80FD800C811B81AA815D
:100C7000B981CE0FD11D0FB6F894DEBF0FBECDBF28
:100C8000ED010895EE0FFF1F0590F491E02D0994FA
:100C90000F931F93CF93DF938230910510F482E07E
:100CA00090E0E0919604F091970430E020E0B0E00D
:100CB000A0E0309799F42115310509F44AC0281BAA
:100CC000390B24303105D8F58A819B816115710576
:100CD00089F1FB0193838283FE0111C04081518120
:100CE0000281138148175907E0F04817590799F412
:100CF000109761F012960C93129713961C933296EC
:100D0000CF01DF91CF911F910F9108950093960429
:100D100010939704F4CF2115310551F04217530772
:100D200038F0A901DB019A01BD01DF01F801C1CF53
:100D3000EF01F9CF9093970480939604CDCFFE01F5
:100D4000E20FF31F81939193225031093983288355
:100D5000D7CF2091940430919504232B41F4209116
:100D6000040130910501309395042093940420915F
:100D70000201309103012115310541F42DB73EB731
:100D80004091060150910701241B350BE09194041A
:100D9000F0919504E217F307A0F42E1B3F0B2817E0
:100DA000390778F0AC014E5F5F4F2417350748F0E4
:100DB0004E0F5F1F50939504409394048193919339
:100DC0009FCFF0E0E0E09CCFCF93DF930097E9F076
:100DD000FC01329713821282A0919604B09197047D
:100DE000ED0130E020E01097A1F420813181820FE5
:100DF000931F20919404309195042817390709F026
:100E000061C0F0939504E0939404DF91CF9108952D
:100E1000EA01CE17DF07E8F54A815B819E014115A3
:100E20005105B1F7E901FB83EA8349915991C40F58
:100E3000D51FEC17FD0761F4808191810296840F24
:100E4000951FE90199838883828193819B838A839B
:100E5000F0E0E0E012968D919C9113970097B9F520
:100E60002D913C911197CD010296820F931F2091F5
:100E70009404309195042817390739F6309751F5C5
:100E80001092970410929604B0939504A093940442
:100E9000BCCFD383C28340815181840F951FC81773
:100EA000D90761F44E5F5F4F88819981480F591FC0
:100EB000518340838A819B819383828321153105ED
:100EC00009F0B0CFF0939704E09396049ECFFD0114
:100ED000DC01C0CF13821282D7CFB0E0A0E0E3E7FD
:100EE000F7E00C940D068C01009751F4CB010E94A1
:100EF00048068C01C801CDB7DEB7E0E10C942906A5
:100F0000FC01E60FF71F9C0122503109E217F3079D
:100F100008F49DC0D901CD91DC911197C617D70770
:100F200098F0C530D10530F3CE01049786179707A6
:100F300008F3C61BD70B2297C193D1936D937C9373
:100F4000CF010E94E406D6CF5B01AC1ABD0A4C016A
:100F50008C0E9D1EA0919604B0919704512C412CAB
:100F6000F12CE12C109731F5809194049091950427
:100F70008815990509F05CC04616570608F058C058
:100F80008091020190910301009741F48DB79EB7C3
:100F90004091060150910701841B950BE817F90752
:100FA00008F055C0F0939504E0939404F90171831F
:100FB0006083A0CF8D919C91119712966C9012979F
:100FC00013967C901397A815B90559F56C0142E06A
:100FD000C40ED11CCA14DB0420F1AC014A195B0910
:100FE000DA011296159780F06282738251834083F2
:100FF000D9016D937C93E114F10471F0D70113963C
:10100000FC93EE93129776CF22968C0F9D1FF901D9
:1010100091838083F301EFCFF0939704E0939604DC
:1010200069CF4816590608F42C017D01D3019ACFE7
:10103000CB010E9448067C01009749F0AE01B8013F
:101040000E942A08C8010E94E406870153CF10E0DD
:1010500000E050CFFB01DC0102C001900D92415035
:101060005040D8F70895FB01DC0101900D9200205B
:10107000E1F70895FB01DC014150504030F08D91C3
:101080000190801919F40020B9F7881B990B089575
:04109000F894FFCF02
:101094001300000098048000000000000000005FBE
:1010A40000000007000700147F147F14242A7F2AFD
:1010B40012231308646236495522500005030000C8
:1010C400001C2241000041221C00082A1C2A080896
:1010D400083E0808005030000008080808080060AE
:1010E40060000020100804023E5149453E00427F42
:1010F400400042615149462141454B311814127F49
:101104001027454545393C4A4949300171090503D1
:101114003649494936064949291E00363600000039
:1011240056360000000814224114141414144122E9
:101134001408000201510906324979413E7E111119
:10114400117E7F494949363E414141227F41412236
:101154001C7F494949417F090901013E41415132FE
:101164007F0808087F00417F41002040413F017F04
:10117400081422417F404040407F0204027F7F04E4
:1011840008107F3E4141413E7F090909063E415115
:10119400215E7F09192946464949493101017F01E8
:1011A400013F4040403F1F2040201F7F2018207FE8
:1011B400631408146303047804036151494543002C
:1011C400007F4141020408102041417F00000402D5
:1011D40001020440404040400001020400205454F5
:1011E40054787F484444383844444420384444487C
:1011F4007F3854545418087E090102081454543C8E
:101204007F0804047800447D40002040443D0000F1
:101214007F10284400417F40007C041804787C0837
:1012240004047838444444387C141414080814140E
:10123400187C7C080404084854545420043F444057
:10124400203C4040207C1C2040201C3C4030403C42
:1012540044281028440C5050503C4464544C4400DE
:101264000836410000007F000000413608000007F6
:1012740005070000000000D201F2001F011F0290C8
:10128400012E018201020304050607080D0A00412C
:10129400726475696E6F20554E4F204F4B2100418B
:1012A400726475696E6F20556E6F204C4544204200
:1012B400617220436F6E74726F6C6C65722052653C
:1012C4006164790053686F77696E67207374617223
:1012D400747570206D6573736167652E2E2E0057CB
:1012E400616974696E6720666F722044312E2E2EF8
:1012F40000526561647920746F2072656365697654
:10130400652066726F6D204431204D696E6900540A
:0A1314004558543A0041434B3A009B
:00000001FF
